:020000040800F2
:1000000088060020310200086D0200086F02000817
:100010007102000873020008750200080000000069
:10002000000000000000000000000000770200084F
:1000300079020008000000007B0200087509000832
:100040007F0200087F0200087F0200087F0200088C
:100050007F0200087F0200087F0200087F0200087C
:100060007F0200087F0200087F0200087F0200086C
:100070007F0200087F0200087F0200087F0200085C
:100080007F0200087F0200087F0200087F0200084C
:100090007F0200087F0200087F0200087F0200083C
:1000A0007F0200087F0200087F0200087F0200082C
:1000B0007F0200087F0200087F0200087F0200081C
:1000C0007F0200087F0200087F0200087F0200080C
:1000D0007F0200087F0200087F0200087F020008FC
:1000E0007F0200087F0200087F0200087F020008EC
:1000F0007F0200087F0200087F0200087F020008DC
:100100007F0200087F0200087F0200087F020008CB
:100110007F0200087F0200087F0200087F020008BB
:100120007F0200087F0200087F0200087F020008AB
:100130007F0200087F0200087F0200087F0200089B
:100140007F0200087F0200087F0200087F0200088B
:100150007F0200087F0200087F0200087F0200087B
:100160007F0200087F0200087F0200087F0200086B
:100170007F0200087F0200087F02000800000000E4
:100180007F0200087F02000800F002F800F041F84A
:100190000AA090E8000C82448344AAF10107DA45E2
:1001A00001D100F036F8AFF2090EBAE80F0013F0F3
:1001B000010F18BFFB1A43F001031847481600004F
:1001C00068160000103A24BF78C878C1FAD85207E0
:1001D00024BF30C830C144BF04680C6070470000C1
:1001E0000023002400250026103A28BF78C1FBD840
:1001F000520728BF30C148BF0B607047752900F017
:10020000A180002070471FB501F0EEFA1FBD10B5A8
:1002100010BD00F04CF91146FFF7F5FF00F024FD8A
:1002200000F06AF903B4FFF7F2FF03BC00F072F9C3
:1002300016481749174B99423CBF50F8042B41F818
:10024000042BF8D314494FF000028B4238BF43F817
:10025000042BFAD3DFF84400016841F47001016017
:10026000BFF34F8FBFF36F8F0D480047FEE7FEE7E8
:10027000FEE7FEE7FEE7FEE7FEE7FEE7FEE7FEE756
:1002800008480949094A0A4B704700002418000829
:1002900000000020080000208806002088ED00E013
:1002A00089010008880000208806002088020020BC
:1002B000880200200FB41CB5074B06AA7B44694690
:1002C0000090059800F0DBF80020694600F0EAF89D
:1002D0001CBC5DF814FB0000E50100002DE9F041B5
:1002E0000E460446002020622046E168884730B36D
:1002F000252805D0D4E901219047206A401CF2E767
:10030000E168204600278847050018D0A5F1410084
:10031000192802D820354FF4006732462946204676
:100320002760FFF76BFF40B1012804D0F61D26F0CF
:1003300007060836D8E7361DD6E72846DAE7206AEA
:10034000BDE8F0812DE9F0410646002410687529CA
:10035000314616A510D0AFF30080002802DA4042E3
:1003600013A507E031688A0701D512A502E0490705
:1003700004D511A5012401E0AFF3008000210A2279
:1003800006F1240709E0B0FBF2FCB0FBF2F302FB3C
:100390001C00303078541846491C0028F3D12346FD
:1003A0002A463046BDE8F04100F00BB800000000DE
:1003B0002D0000002B000000200000007047704757
:1003C00070472DE9F0470D4699469246044600F1E4
:1003D00024080168880604D5E06921F01001216035
:1003E00000E00120A84201DD471B00E00027A169D1
:1003F0007A1902EB0900081AA0612078C00602D41D
:100400002046AFF30080002608E0D4E901211AF865
:1004100006009047206A401C761C20624E45F4DBA3
:100420002078C0060AD52046AFF3008006E0D4E964
:10043000012130209047206A401C2062381EA7F11D
:100440000107F4DC07E0D4E9012118F80500904722
:10045000206A401C2062281EA5F10105F3DC20461D
:10046000AFF300802078000602D50220BDE8F087B7
:100470000120FBE701694A1C02610878704700B55A
:100480008FB0CDE901310021059105497944CDE9CD
:10049000031011466846FFF721FF0FB000BD0000B2
:1004A000E5FFFFFF0A6802F8010B0A607047754616
:1004B00000F02CF8AE4605006946534620F00700D0
:1004C000854618B020B5FFF7DBFEBDE820404FF0B1
:1004D00000064FF000074FF000084FF0000BAC464D
:1004E000ACE8C009ACE8C009ACE8C009ACE8C00998
:1004F00021F007018D46704710B50446AFF3008028
:100500002046BDE81040FFF78DBE00000048704750
:100510000800002001491820ABBEFEE726000200BB
:100520007047000040F20001C2F2000108807047ED
:1005300041F24C00C4F20200016841F00201016086
:1005400040F20040C4F60000016A41F088410162B7
:10055000816841F470418160416841F0C0014160AF
:10056000C16841F4A041C160016821F4A04101606B
:100570007047000080B5FFF7DBFF45F20040C4F292
:100580000000016821F00101016041F23801C4F26C
:1005900002010A6A42F400120A620A6D42F48052B1
:1005A0000A650A6842F400120A600A6822F400121E
:1005B0000A60016841F6257241F0800101604168DE
:1005C000C9F2790241F00071416001691143016192
:1005D000816821F400418160816841F052018160AD
:1005E000816841F400418160016841F001010160CE
:1005F00080BD000041F24C00C4F20200016841F0ED
:100600000201016040F20040C4F60000416A41F47A
:1006100088414162816841F470018160416841F420
:1006200040614160C16841F4A001C160016821F4EA
:10063000A00101607047000080B5FFF7DBFF45F6C1
:100640000000C4F20000016821F00101016041F2E4
:100650003801C4F202010A6A42F480020A620A6D99
:1006600042F480420A650A6842F480020A600A681D
:1006700022F480020A60016840F20A4241F08001DF
:1006800001604168C9F2260241F0007141600169D0
:1006900011430161816821F400418160816841F06A
:1006A00052018160816841F400418160016841F03C
:1006B0000101016080BD0000F0B581B004464FF03B
:1006C000FF00E2B11D46D3B1204616460F4600F0AA
:1006D0006BF8204639462A46012300F043F80020F3
:1006E000A1694907FCD5616A31540130A842F7D1AC
:1006F000A0694006FCD5204600F04EF8002040B22C
:1007000001B0F0BDF0B581B004464FF0FF002AB350
:100710001D461BB3204616460F4600F045F82046FE
:1007200039462A460023002700F01CF8A0698007FC
:10073000FCD5F05D0137AF42A062F7D1A069400659
:100740005CBFA0695FEAC060F8D5A069C00604D4A8
:10075000204600F021F8002000E0FF2040B201B068
:10076000F0BD000080B58446D0F804E049F60000F2
:10077000CFF6004000EA0E006FF39F21012B08BF67
:1007800000F5806041EA0241084400F50051002074
:10079000CCF8041080BD0000416841F48041416004
:1007A00081698906FCD5704781690904FCD47047CA
:1007B000B0B582B045F200441020C4F200040DF13F
:1007C00007058DF807002046E0212A460123FFF7A0
:1007D00099FF21208DF807002046E2212A460123B7
:1007E000FFF790FF81208DF807002046E2212A467E
:1007F0000123FFF787FFEF208DF807002046E22155
:100800002A460123FFF77EFF02B0B0BD41F24C0043
:10081000C4F2020001684FF0904241F00101016012
:10082000116821F440311160116841F40031116008
:100830000421C4F600010B6A23F00F030B620B6A5C
:1008400043F001030B628B6823F440338B600B6829
:1008500023F480730B604B6843F440334B6043696F
:1008600043F400634361136823F440631360136827
:1008700043F400631360CA6922F47002CA61CA6952
:1008800042F48012CA618A6822F440628A600A686F
:1008900022F020020A604A6842F440624A60C1685D
:1008A00041F00101C16070472DE9F04381B040F291
:1008B0006C06C2F200065A2040F270083060C2F2A4
:1008C00000088720C8F80000FFF7A0FF42F618478D
:1008D000C4F201074FF04F0944F61F64C7F81090A7
:1008E0007C6138684FF68F75CFF6FE75284038600A
:1008F000386840F068003860B86820F00200B860DE
:10090000B86840F00100B860F86A40F40040F8624E
:10091000306800F061F9F86157F8180C182640F0BB
:100920001100C4F2000647F8180CC6F81090746164
:10093000306828403060306840F068003060B0684F
:1009400020F00200B060B06840F00100B060F06AD2
:1009500040F40040F062D8F8000000F03DF9F0618A
:100960004FF08040016841F01101016001B0BDE825
:10097000F083000010B540F27400C2F2000001687C
:100980000131016040F28400C2F2000000780028CA
:1009900008BF10BD40F27804C2F20004206800F0E5
:1009A000BDF82068C82824BF0020206020680130DE
:1009B000206010BD10B54EF21004CEF200040020ED
:1009C00042F20F7120606160A06000F09FF8206823
:1009D00040F002002060206820F0040020602068C1
:1009E00040F00100206010BD80B542F20001C4F269
:1009F0000201086820F0070008600A6841F2000060
:100A000042F00202C4F202000A60016841F48071FF
:100A1000016000BF01684905FCD5416821F0F8512B
:100A20004160416841F080514160016821F080716E
:100A3000016000BF01688901FCD4C168142221F063
:100A40000301C160C16841F00201C160C16862F385
:100A50000E21C160C168012262F30611C160C16844
:100A600021F0C061C160C16841F08071C16001685E
:100A700041F08071016000BF01688901FCD5816887
:100A800021F003018160816841F00301816000BFB2
:100A9000816801F00C010C29FAD1816821F0F00184
:100AA0008160816821F4E0618160816821F4605196
:100AB0008160016821F08061016000BF0168490127
:100AC000FCD4016921F4FE410161016941F4C05186
:100AD0000161016941F400310161016941F4803132
:100AE0000161016841F08061016000BF0168490156
:100AF000FCD5D0F8881021F44001C0F88810016EB0
:100B000041F400110166FFF755FF80BD4EF62350FA
:100B1000CEF20000002101707047000010B540F2D5
:100B20006A046428C2F2000404D0012808D100F04D
:100B300013F905E0052000F0B1F8207801302070AD
:100B400040F20001C2F200012078098801EB810126
:100B5000814218BF10BD00F0D3F800F027F8002044
:100B6000207010BD80B502280FD001281DD140F2A1
:100B70006C0140F20602C2F20001C2F200020968F2
:100B8000127891420ED802280FD140F2700140F243
:100B90000702C2F20001C2F2000209681278914213
:100BA00098BF80BD013900F019F980BD10B582B041
:100BB00040F26800C2F2000002880DF1030404A1B3
:100BC0002046FFF777FB204600F022F902B010BD67
:100BD000257525250000000080B500F00AFC9FED7A
:100BE0000A0B53EC102B00F04FFA9FED090B53EC5E
:100BF000102B00F011FC9FED080B53EC102B00F0B4
:100C00009BF900F0C9FB80BD000000000080664039
:100C10000000000000409F400000000000407F40B6
:100C200080B502280FD001281DD140F26C0140F29E
:100C30000402C2F20001C2F2000209681278914275
:100C40000ED302280FD140F2700140F20502C2F229
:100C50000001C2F2000209681278914228BF80BDEB
:100C6000013100F0BBF880BDFFF7BEFEFFF71CFEB0
:100C7000FFF780FCFFF7E0FCFFF79AFD40F2000071
:100C8000C2F200000068FFF74DFC40F28400C2F29F
:100C900000000121017000BFFEE70000B0B540F286
:100CA0007C05C2F200052988AA8804465018698884
:100CB000EA8840081144A0EB5100A04203DD012066
:100CC000FFF750FF05E06142884202DA0120FFF79A
:100CD000A7FF28886988EA880844A9884008114441
:100CE000A0EB5100A04203DD0220FFF799FFB0BD49
:100CF00061428842A8BFB0BD0220FFF733FFB0BDFC
:100D000010B582B045F60004C4F200044FF0400C68
:100D10002046642100220623CDF800C000F0E6F84A
:100D2000204664210022042300F02CF8000A00F081
:100D300060FB9FED070B53EC102B00F0A5F900F0C2
:100D4000FBFA40F26801C2F20001088002B010BD57
:100D50009A9999999999F93F70B545F2004440F2F2
:100D60007C060025C4F20004C2F20006EAB2204666
:100D70004621112300F006F826F815000135042D50
:100D8000F4D170BDB0B582B0054645F20040C4F262
:100D900000000C46002185428DF80730ADF80410A4
:100DA00009D1012191408DF803100DF10302E021DA
:100DB0000123FFF7A7FC0DF1070228462146012376
:100DC000FFF7A0FC01AA284621460223FFF774FC86
:100DD000BDF8040000BA000C02B0B0BDB0B50546C5
:100DE00008460C46FFF7F8FE342140F27003C4F2C7
:100DF000000140F26C02C2F20003012D08BF01F5B0
:100E00009631C2F2000208BF134608601C60B0BDF4
:100E10002DE9F04184B045F200480546C4F20008CF
:100E200010200DF107068DF807004046E0213246FC
:100E30000123FFF767FC0020002100BF705401313F
:100E4000C9B20929FAD34046E22132460923FFF705
:100E500059FC0021012008E0371832540230C0B29A
:100E6000082801F101017B7036D2C9B26A5CA2F197
:100E70002504142C0FD806220023DFE804F00F0C01
:100E80000C0C0C0C0C0C0C0C0C120B15181B1E2152
:100E900024272A00E0E700230022DDE724220C2398
:100EA000DAE73F220023D7E7DB220023D4E7CF2273
:100EB0000023D1E7E6220023CEE7ED220023CBE793
:100EC000FD220023C8E707220023C5E7FF220023F5
:100ED000C2E7E7220023BFE70DF107024046E22107
:100EE0000923FFF70FFC04B0BDE8F081B0B582B074
:100EF0000C460546069945F20040C4F200008DF804
:100F00000510090A85428DF807308DF804308DF8F8
:100F1000061009D1012191408DF807100DF107024B
:100F2000E0210123FFF7EEFB01AA28462146032317
:100F3000FFF7E8FB02B0B0BD10B591EA030F48BF60
:100F400083F0004300F16E83841A71EB030C05D229
:100F5000121943EB0C03001B61EB0C014FEA115417
:100F6000A4EB135CDFF81CE11EEA430F18BF9EEAF6
:100F7000445F73D021EA045123EA0E0343F4801343
:100F8000DCF1200E32D322FA0CFE10EB0E0023FA15
:100F90000CFE41EB0E01CCF1200E03FA0EFE10EB1D
:100FA0000E00CCF1200E51F10001B1F5801F32D2BC
:100FB00001EB045112FA0EF2BDE8104058BF704721
:100FC000401C38BF5FEA420218BF7047002814BFB8
:100FD00020F0010041F100014FEA410313F5001F29
:100FE00038BF7047A1F1C04100F00EBB012A43EBAE
:100FF0000302ACF1200CDCF11F0E32BF4FF0000EEB
:1010000023FA0CF310EB030041EB0451B4EB115F36
:10101000D0D0A1EB045101F58011490801EB045136
:101020005FEA30000ED350F1000038BF12FA0EFE16
:1010300008D1BDE81040C9E7401C38BF5FEA420252
:10104000CAD1C3E7BDE810404FEA410313F5001FC2
:1010500038BF7047A1F1C04100F0D6BA9EEA445FA4
:1010600008D011EA5E0FBDE8104004BF01F0004156
:1010700000207047BDE8104070B500F077FA00BF5F
:1010800064FBBE3E0000E0FF2DE9C04130B4DFF854
:10109000A0C23CEA111418BF3CEA131400F0EC8023
:1010A0001CEA111481EA030544EAD57418BF1CEA4E
:1010B000131500F0C780A4EB050404F17F7404F558
:1010C00000344FF0004545EAC12145EAC32341EA17
:1010D000505143EA52534FEAC0204FEAC22299428C
:1010E00008BF904200F09C804FEA13650FF2401653
:1010F000765D4FEA134506FB05F7C7F1807706FBDF
:1011000007F74FEAD737A7FB03687642A7FB06CE5F
:10111000C8F5803838BFA8F1010807FB08E6A6FB30
:10112000028C4FF0000EE6FB03CEDCF1000CCEF19A
:10113000004E38BFAEF1010EA6FB0C584FF0000771
:10114000E6FB0E87A1FB08C6A0FB07CE16EB0E063A
:101150004FF0000545F10005E1FB076515F1E04E94
:101160007EBFA4F580345FEA46066D4116F1800724
:1011700045F100054FEA172747EA05674FEA1525AD
:101180004FEA0666A6F1DE46B6F1805F1FD9384603
:1011900005EBC47124F0010C01EB0C11BCF1FE6FE6
:1011A00002D8F0BCBDE8008124425CBF01F5801E7E
:1011B0009EEAC47F02D4F0BCBDE80081244238D44A
:1011C000A1F1C041F0BCBDE8004100F01DBA4FEAFA
:1011D000D02040EA41504FEAD1214FEAD22242EAE0
:1011E00043524FEAD323A7FB028607FB036605FBA6
:1011F00002661EEA0E0F58BFA6EB0056B6EB00566D
:101200004FEA520E4EEAC37E18EB0E0E56EB530E0B
:10121000BDD518EB02085E417F1C55F10005B6E70D
:101220004FF480154FF000074FF000064FF0000814
:10123000ADE701F1C04101F000414FF00000F0BC0A
:10124000BDE800810CEA131511EA0C1F00D00CE078
:1012500013EA0C1F00F025804FF0000081EA030123
:1012600001F00041F0BCBDE80081F0BCBDE80041E8
:1012700081EA030100F0C8B9F0BCBDE8004170B5D7
:1012800000F074F9097EFC3E00F007B84FF0000052
:1012900081EA030101F00041704781EA030100F097
:1012A000B3B9F0BCBDE8004122494FF000007047DF
:1012B000FFFDFBF9F7F5F4F2F0EEEDEBE9E8E6E41B
:1012C000E3E1E0DEDDDBDAD8D7D5D4D3D1D0CFCDA2
:1012D000CCCBCAC8C7C6C5C4C2C1C0BFBEBDBCBBDB
:1012E000BAB9B8B7B6B5B4B3B2B1B0AFAEADACABD6
:1012F000AAA9A8A8A7A6A5A4A3A3A2A1A09F9F9EB0
:101300009D9C9C9B9A999998979796959594939361
:10131000929191908F8F8E8E8D8C8C8B8B8A8989F8
:10132000888887878685858484838382828181807B
:101330000000FF070000F87F4FEA41034FEA5353D4
:10134000A3F58063D3F11E03C8BFD3F1210C0CDDDC
:101350004FF0004242EAC12242EA505232FA03FC04
:101360008CEAE17CACEBE1707047102BC4BF00202D
:10137000704703F5787CBCF1FF3F04D06FF000426A
:1013800082EA2100704770B500F0F0F8499224809D
:1013900000207047F2E700004FEA1153A3F5806385
:1013A000D3F11E03A8BFD3F1200C08DB4FF000429D
:1013B00042EAC12252EA505232FA03F0704709421F
:1013C0000BD4102BC4BF0020704703F5787CBCF110
:1013D000FF3F05D04FF0FF3070474FF000007047DF
:1013E00070B500F0C3F800BF499224800020704718
:1013F000F0E7B0FA80F310FA03F10AD0C3F11D034D
:1014000003F580634FEA03524FEA415002EBD121CA
:1014100070474FF00000704770B5DFF848C11CEA14
:10142000111E1EBF1CEA13159EEA0C0F95EA0C0F45
:1014300000F06F8081EA03044EEAD47EAE4421EAD4
:101440004C1123EA4C1341F4801143F48013AEF1A4
:101450007F7EA1FB024CA0FB0365361955EB0C0502
:10146000A1FB034C4CF10003A0FB021C16EB0C0685
:10147000654153F10003094218BF46F0010613F419
:10148000007F0BD14FEA03314FEA053041EA155195
:1014900040EA165034036FF003020AE04FEAC3211A
:1014A0004FEAC52041EA555140EA5650F4026FF028
:1014B000020202EB2E4201EB025585EACE710AD000
:1014C0005FEA440C18BF24F0004450F1000041F1E1
:1014D000000120EAD47040F2FE7C624500D270BD6B
:1014E000A84214BF4FF080444FF04044002E08BF84
:1014F0000024BEF1806FA8BFA1F1C041BDE87040DB
:1015000080F2828001F1C04101F000414FF0000003
:1015100070470CEA13159EEA0C0F18BF95EA0C0FE2
:1015200006D081EA030E4FF000000EF0004170BDBE
:1015300000F01CF88900013E00F007B800F009B87F
:101540004FEA430C5FEA5C5C08D081EA030100F0DB
:101550005BB84FEA410C5FEA5C5CF6D102494FF0A0
:10156000000070470000FF070000F87F0EF1020E38
:101570002EF0030E5EF8046B364205D4012A43EBCD
:10158000030515F5001F12D8012841EB010C1CF5CD
:10159000001F0CD80ED14FEAD17C0CEB4C0C0CF197
:1015A000020C15F5001F08BF4CEBD37C04E04FF094
:1015B000080C01E04FEAD37C0CEB4C0526FA05F64B
:1015C00006F00706B6F1040C06D20EEB860CBDE859
:1015D00070404CF0010C6047DFE80CF0090B020290
:1015E0004FF00041A1F500214FF0000070BD1946F9
:1015F0001046012851EB010418BFD4F5001484BF34
:10160000002001F0004170BD0808A0F500114FEA6C
:101610003101704710B591EA030F48BF83F00043D2
:101620003FF592AC841A71EB030C07D28CF0004C9E
:10163000121943EB0C03001B61EB0C014FEA115430
:10164000A4EB135CDFF89CE11EEA430F18BF9EEA8F
:10165000445F00F0B08021EA045123EA6E03524255
:10166000C3EB6E0338BF5B1EDCF1200E25D322FADC
:101670000CFE10EB0E0043FA0CFE41EB0E01CCF118
:10168000200E03FA0EFE10EB0E00CCF1200E51F1ED
:10169000000129D401EB045112FA0EF2BDE810400A
:1016A00058BF7047401C1CBFB2F1004F7047002864
:1016B0000CBF491C20F00100704712EB020E43EBF7
:1016C000030218BF4FF0010E4EEA4202ACF1200CAB
:1016D000DCF11E0E54D943FA0CFE10EB0E00CCF1D7
:1016E0001E0E51F1FF31D5D50EF1010E12FA0EFE8C
:1016F000404141EB010101EB445C5FEA5C5C10D9C5
:1017000001EB045110EBDE7038BFBEF1004FBDE8B5
:10171000104018BF704700280CBF491C20F0010082
:10172000704730D24FEAD42C24F4006411F5001134
:101730001BD0B1FA81F20B3AA41AA41ED2F12003F5
:10174000914030FA03F31943904001EBCC7101EB67
:101750000451002CBDE81040A8BF704701F1C04102
:1017600001F000414FF000007047B0FA80F310FA2A
:1017700003F100D110BDE41A173C4805C90AE4E79B
:1017800001EB045110BD49104FEA300001EB045148
:10179000BDE8104002E04FF0000170474A0008BF6A
:1017A0000042F8D0B2F5001F28BF704701F0004199
:1017B0004FF0000070479EEA445F07D011EA5E0FC9
:1017C000BDE8104004BF002100207047BDE8104074
:1017D00070B5FFF7CBFE00BF40DFF63E104683F04A
:1017E000004170470000E0FFF1EE100A4FF6FF7174
:1017F000C0F2C03120EA010040F04070E1EE100A72
:1018000070470000281800080000002008000000B1
:10181000C4010008301800080800002080060000FD
:10182000E001000800000000010000008CAA285A16
:040000050800018965
:00000001FF
